:020000040000FA
:0400000049EF00F0D4
:020004000000FA
:0200080008D01E
:08001800110034EC00F0F2B419
:1000200013EF00F01100002A800E00601AEF00F0BC
:10003000F2941100836624EF00F0FF0E8C6E8B8A21
:100040008B88006AF29411008C6A8B9A8B98006AF4
:10005000F2941100D09E880ED56EE00EF26E200E46
:100060009D6E34EC00F012003C0ED76EB00ED66ED2
:100070001200006A1200926AC00E946E956A949EF5
:10008000949C1200260EAC6E900EAB6E810EAF6E7D
:10009000120039EC00F03BEC00F02AEC00F042ECEE
:1000A00000F08B9E8B9C9EBA58EF00F051EF00F051
:1000B000020EAE6464EF00F0040EAE6475EF00F063
:1000C000AECFEEFF51EF00F0800EE96EEA6AEE6A05
:1000D000010EEA6267EF00F0AC0EE96267EF00F034
:1000E000800EE96EEA6A51EF00F0800EE96EEA6A6E
:1000F000ACA275EF00F0EECFADFF010EEA627BEF30
:1001000000F0AC0EE9627BEF00F051EF00F08BECF9
:1001100000F0000012000000120087EC00F087ECF5
:1001200000F087EC00F087EC00F08BEC00F00000B2
:020130001200BB
:020000040030CA
:0100010006F8
:010003001EDE
:010005008179
:00000001FF
